{
  "contractName": "CrowdFunding",
  "abi": [
    {
      "inputs": [],
      "stateMutability": "nonpayable",
      "type": "constructor"
    },
    {
      "inputs": [
        {
          "internalType": "uint256",
          "name": "",
          "type": "uint256"
        },
        {
          "internalType": "address",
          "name": "",
          "type": "address"
        }
      ],
      "name": "isParticipate",
      "outputs": [
        {
          "internalType": "bool",
          "name": "",
          "type": "bool"
        }
      ],
      "stateMutability": "view",
      "type": "function"
    },
    {
      "inputs": [],
      "name": "numCampaigns",
      "outputs": [
        {
          "internalType": "uint256",
          "name": "",
          "type": "uint256"
        }
      ],
      "stateMutability": "view",
      "type": "function"
    },
    {
      "inputs": [
        {
          "internalType": "address payable",
          "name": "receiver",
          "type": "address"
        },
        {
          "internalType": "uint256",
          "name": "goal",
          "type": "uint256"
        }
      ],
      "name": "newCampain",
      "outputs": [
        {
          "internalType": "uint256",
          "name": "campaignID",
          "type": "uint256"
        }
      ],
      "stateMutability": "nonpayable",
      "type": "function"
    },
    {
      "inputs": [
        {
          "internalType": "uint256",
          "name": "campainID",
          "type": "uint256"
        }
      ],
      "name": "bid",
      "outputs": [],
      "stateMutability": "payable",
      "type": "function"
    },
    {
      "inputs": [
        {
          "internalType": "uint256",
          "name": "campaignID",
          "type": "uint256"
        }
      ],
      "name": "withdraw",
      "outputs": [
        {
          "internalType": "bool",
          "name": "reached",
          "type": "bool"
        }
      ],
      "stateMutability": "nonpayable",
      "type": "function"
    }
  ],
  "bytecode": "0x608060405234801561001057600080fd5b50600080546001600160a01b03191633179055610440806100326000396000f3fe60806040526004361061004a5760003560e01c80632c0f7b6f1461004f5780632e1a7d4d14610078578063454a2ab3146100a8578063728dda19146100bd578063cbcb89c2146100f8575b600080fd5b34801561005b57600080fd5b5061006560015481565b6040519081526020015b60405180910390f35b34801561008457600080fd5b50610098610093366004610336565b610118565b604051901515815260200161006f565b6100bb6100b6366004610336565b610191565b005b3480156100c957600080fd5b506100986100d8366004610367565b600460209081526000928352604080842090915290825290205460ff1681565b34801561010457600080fd5b50610065610113366004610397565b6102e6565b6000818152600260208190526040822090810154600382015410156101405750600092915050565b600381018054600091829055825460405191926001600160a01b039091169183156108fc0291849190818181858888f19350505050158015610186573d6000803e3d6000fd5b506001949350505050565b6000818152600260205260409020600481015463ffffffff164210156101e85760405162461bcd60e51b81526020600482015260076024820152661cdd185c9d195960ca1b60448201526064015b60405180910390fd5b6004810154640100000000900463ffffffff1642106102315760405162461bcd60e51b8152602060048201526005602482015264195b99195960da1b60448201526064016101df565b3481600301600082825461024591906103d9565b90915550506001818101805460009061025f9084906103d9565b90915550505060008181526003602090815260408083208151808301835233808252348286019081528354600180820186559488528688209351600290910290930180546001600160a01b0319166001600160a01b03909416939093178355519183019190915594845260048352818420948452939091529020805460ff19169091179055565b60018054600091826102f7836103f1565b90915550600081815260026020819052604090912080546001600160a01b0319166001600160a01b039690961695909517855593909301919091555090565b60006020828403121561034857600080fd5b5035919050565b6001600160a01b038116811461036457600080fd5b50565b6000806040838503121561037a57600080fd5b82359150602083013561038c8161034f565b809150509250929050565b600080604083850312156103aa57600080fd5b82356103b58161034f565b946020939093013593505050565b634e487b7160e01b600052601160045260246000fd5b600082198211156103ec576103ec6103c3565b500190565b600060018201610403576104036103c3565b506001019056fea2646970667358221220495a4bec53d496a1748de710b8d17e8942dcea44c69497a7c31337e3196ae2e864736f6c634300080f0033",
  "immutableReferences": {},
  "source": "pragma solidity 0.8.15;\n\ncontract CrowdFunding {\n\n    address owner;\n\n    constructor() {\n        owner = msg.sender;\n    }\n    struct Campaign {\n        address payable receiver;\n        uint numFunders;\n        uint fundingGoal;\n        uint totalAmount;\n        uint32 startAt;\n        uint32 endAt;\n    }\n\n    struct Funder{\n        address addr;\n        uint amount;\n    }\n    uint public numCampaigns;\n    mapping(uint => Campaign) campaigns;\n    mapping(uint => Funder[]) funders;\n    \n\n    mapping(uint => mapping( address => bool)) public isParticipate;\n\n    modifier judgeParticipate(uint campaignID) {\n        require(isParticipate[campaignID][msg.sender] == false);\n        _;\n\n    }\n\n    modifier isOwner() {\n        require(msg.sender == owner);\n        _;\n    }\n\n    function newCampain(address payable receiver, uint goal) external returns(uint campaignID){\n        campaignID = numCampaigns++;\n        Campaign storage c = campaigns[campaignID];\n        c.receiver = receiver;\n        c.fundingGoal = goal;\n\n    }\n\n    function bid (uint campainID) external payable {\n        Campaign storage c = campaigns[campainID];\n        require(block.timestamp >= c.startAt, \"started\");\n         require(block.timestamp < c.endAt, \"ended\");\n        c.totalAmount += msg.value;\n        c.numFunders += 1;\n        funders[campainID].push(Funder({\n            addr: msg.sender,\n            amount: msg.value\n        }));\n        isParticipate[campainID][msg.sender] = true;\n        \n    }\n        function withdraw(uint campaignID) external returns(bool reached){\n            Campaign storage c = campaigns[campaignID];\n            if (c.totalAmount < c.fundingGoal){\n                return false;\n            }\n\n            uint amount = c.totalAmount;\n            c.totalAmount = 0;\n            c.receiver.transfer(amount);\n\n            return true;\n        }\n\n    }\n\n",
  "sourcePath": "/Users/verafeng/first-contract-project/contracts/CrowdFunding.sol",
  "compiler": {
    "name": "solc",
    "version": "0.8.15+commit.e14f2714.Emscripten.clang"
  },
  "schemaVersion": "3.4.7",
  "updatedAt": "2022-06-20T09:50:34.049Z",
  "devdoc": {
    "kind": "dev",
    "methods": {},
    "version": 1
  },
  "userdoc": {
    "kind": "user",
    "methods": {},
    "version": 1
  }
}