{
  "contractName": "MintablleERC721",
  "abi": [
    {
      "inputs": [
        {
          "internalType": "string",
          "name": "_name",
          "type": "string"
        },
        {
          "internalType": "string",
          "name": "_symbol",
          "type": "string"
        }
      ],
      "stateMutability": "nonpayable",
      "type": "constructor"
    },
    {
      "anonymous": false,
      "inputs": [
        {
          "indexed": true,
          "internalType": "address",
          "name": "owner",
          "type": "address"
        },
        {
          "indexed": true,
          "internalType": "address",
          "name": "approved",
          "type": "address"
        },
        {
          "indexed": true,
          "internalType": "uint256",
          "name": "tokenId",
          "type": "uint256"
        }
      ],
      "name": "Approval",
      "type": "event"
    },
    {
      "anonymous": false,
      "inputs": [
        {
          "indexed": true,
          "internalType": "address",
          "name": "owner",
          "type": "address"
        },
        {
          "indexed": true,
          "internalType": "address",
          "name": "operator",
          "type": "address"
        },
        {
          "indexed": false,
          "internalType": "bool",
          "name": "approved",
          "type": "bool"
        }
      ],
      "name": "ApprovalForAll",
      "type": "event"
    },
    {
      "anonymous": false,
      "inputs": [
        {
          "indexed": true,
          "internalType": "address",
          "name": "previousOwner",
          "type": "address"
        },
        {
          "indexed": true,
          "internalType": "address",
          "name": "newOwner",
          "type": "address"
        }
      ],
      "name": "OwnershipTransferred",
      "type": "event"
    },
    {
      "anonymous": false,
      "inputs": [
        {
          "indexed": true,
          "internalType": "address",
          "name": "from",
          "type": "address"
        },
        {
          "indexed": true,
          "internalType": "address",
          "name": "to",
          "type": "address"
        },
        {
          "indexed": true,
          "internalType": "uint256",
          "name": "tokenId",
          "type": "uint256"
        }
      ],
      "name": "Transfer",
      "type": "event"
    },
    {
      "inputs": [],
      "name": "_CUR_TOKENID_",
      "outputs": [
        {
          "internalType": "uint256",
          "name": "",
          "type": "uint256"
        }
      ],
      "stateMutability": "view",
      "type": "function"
    },
    {
      "inputs": [
        {
          "internalType": "address",
          "name": "to",
          "type": "address"
        },
        {
          "internalType": "uint256",
          "name": "tokenId",
          "type": "uint256"
        }
      ],
      "name": "approve",
      "outputs": [],
      "stateMutability": "nonpayable",
      "type": "function"
    },
    {
      "inputs": [
        {
          "internalType": "address",
          "name": "owner",
          "type": "address"
        }
      ],
      "name": "balanceOf",
      "outputs": [
        {
          "internalType": "uint256",
          "name": "",
          "type": "uint256"
        }
      ],
      "stateMutability": "view",
      "type": "function"
    },
    {
      "inputs": [
        {
          "internalType": "uint256",
          "name": "tokenId",
          "type": "uint256"
        }
      ],
      "name": "getApproved",
      "outputs": [
        {
          "internalType": "address",
          "name": "",
          "type": "address"
        }
      ],
      "stateMutability": "view",
      "type": "function"
    },
    {
      "inputs": [
        {
          "internalType": "address",
          "name": "owner",
          "type": "address"
        },
        {
          "internalType": "address",
          "name": "operator",
          "type": "address"
        }
      ],
      "name": "isApprovedForAll",
      "outputs": [
        {
          "internalType": "bool",
          "name": "",
          "type": "bool"
        }
      ],
      "stateMutability": "view",
      "type": "function"
    },
    {
      "inputs": [],
      "name": "name",
      "outputs": [
        {
          "internalType": "string",
          "name": "",
          "type": "string"
        }
      ],
      "stateMutability": "view",
      "type": "function"
    },
    {
      "inputs": [],
      "name": "owner",
      "outputs": [
        {
          "internalType": "address",
          "name": "",
          "type": "address"
        }
      ],
      "stateMutability": "view",
      "type": "function"
    },
    {
      "inputs": [
        {
          "internalType": "uint256",
          "name": "tokenId",
          "type": "uint256"
        }
      ],
      "name": "ownerOf",
      "outputs": [
        {
          "internalType": "address",
          "name": "",
          "type": "address"
        }
      ],
      "stateMutability": "view",
      "type": "function"
    },
    {
      "inputs": [],
      "name": "renounceOwnership",
      "outputs": [],
      "stateMutability": "nonpayable",
      "type": "function"
    },
    {
      "inputs": [
        {
          "internalType": "address",
          "name": "from",
          "type": "address"
        },
        {
          "internalType": "address",
          "name": "to",
          "type": "address"
        },
        {
          "internalType": "uint256",
          "name": "tokenId",
          "type": "uint256"
        }
      ],
      "name": "safeTransferFrom",
      "outputs": [],
      "stateMutability": "nonpayable",
      "type": "function"
    },
    {
      "inputs": [
        {
          "internalType": "address",
          "name": "from",
          "type": "address"
        },
        {
          "internalType": "address",
          "name": "to",
          "type": "address"
        },
        {
          "internalType": "uint256",
          "name": "tokenId",
          "type": "uint256"
        },
        {
          "internalType": "bytes",
          "name": "_data",
          "type": "bytes"
        }
      ],
      "name": "safeTransferFrom",
      "outputs": [],
      "stateMutability": "nonpayable",
      "type": "function"
    },
    {
      "inputs": [
        {
          "internalType": "address",
          "name": "operator",
          "type": "address"
        },
        {
          "internalType": "bool",
          "name": "approved",
          "type": "bool"
        }
      ],
      "name": "setApprovalForAll",
      "outputs": [],
      "stateMutability": "nonpayable",
      "type": "function"
    },
    {
      "inputs": [
        {
          "internalType": "bytes4",
          "name": "interfaceId",
          "type": "bytes4"
        }
      ],
      "name": "supportsInterface",
      "outputs": [
        {
          "internalType": "bool",
          "name": "",
          "type": "bool"
        }
      ],
      "stateMutability": "view",
      "type": "function"
    },
    {
      "inputs": [],
      "name": "symbol",
      "outputs": [
        {
          "internalType": "string",
          "name": "",
          "type": "string"
        }
      ],
      "stateMutability": "view",
      "type": "function"
    },
    {
      "inputs": [
        {
          "internalType": "uint256",
          "name": "tokenId",
          "type": "uint256"
        }
      ],
      "name": "tokenURI",
      "outputs": [
        {
          "internalType": "string",
          "name": "",
          "type": "string"
        }
      ],
      "stateMutability": "view",
      "type": "function"
    },
    {
      "inputs": [
        {
          "internalType": "address",
          "name": "from",
          "type": "address"
        },
        {
          "internalType": "address",
          "name": "to",
          "type": "address"
        },
        {
          "internalType": "uint256",
          "name": "tokenId",
          "type": "uint256"
        }
      ],
      "name": "transferFrom",
      "outputs": [],
      "stateMutability": "nonpayable",
      "type": "function"
    },
    {
      "inputs": [
        {
          "internalType": "address",
          "name": "newOwner",
          "type": "address"
        }
      ],
      "name": "transferOwnership",
      "outputs": [],
      "stateMutability": "nonpayable",
      "type": "function"
    },
    {
      "inputs": [
        {
          "internalType": "address[]",
          "name": "receivers",
          "type": "address[]"
        },
        {
          "internalType": "string[]",
          "name": "uris",
          "type": "string[]"
        }
      ],
      "name": "mint",
      "outputs": [],
      "stateMutability": "nonpayable",
      "type": "function"
    }
  ],
  "bytecode": "0x60806040523480156200001157600080fd5b5060405162001e5938038062001e5983398101604081905262000034916200019b565b8181600062000044838262000294565b50600162000053828262000294565b505050620000706200006a6200007860201b60201c565b6200007c565b505062000360565b3390565b600780546001600160a01b038381166001600160a01b0319831681179093556040519116919082907f8be0079c531659141344cd1fd0a4f28419497f9722a3daafe3b4186f6b6457e090600090a35050565b634e487b7160e01b600052604160045260246000fd5b600082601f830112620000f657600080fd5b81516001600160401b0380821115620001135762000113620000ce565b604051601f8301601f19908116603f011681019082821181831017156200013e576200013e620000ce565b816040528381526020925086838588010111156200015b57600080fd5b600091505b838210156200017f578582018301518183018401529082019062000160565b83821115620001915760008385830101525b9695505050505050565b60008060408385031215620001af57600080fd5b82516001600160401b0380821115620001c757600080fd5b620001d586838701620000e4565b93506020850151915080821115620001ec57600080fd5b50620001fb85828601620000e4565b9150509250929050565b600181811c908216806200021a57607f821691505b6020821081036200023b57634e487b7160e01b600052602260045260246000fd5b50919050565b601f8211156200028f57600081815260208120601f850160051c810160208610156200026a5750805b601f850160051c820191505b818110156200028b5782815560010162000276565b5050505b505050565b81516001600160401b03811115620002b057620002b0620000ce565b620002c881620002c1845462000205565b8462000241565b602080601f831160018114620003005760008415620002e75750858301515b600019600386901b1c1916600185901b1785556200028b565b600085815260208120601f198616915b82811015620003315788860151825594840194600190910190840162000310565b5085821015620003505787850151600019600388901b60f8161c191681555b5050505050600190811b01905550565b611ae980620003706000396000f3fe608060405234801561001057600080fd5b50600436106101165760003560e01c8063715018a6116100a2578063a22cb46511610071578063a22cb4651461022f578063b88d4fde14610242578063c87b56dd14610255578063e985e9c514610268578063f2fde38b146102a457600080fd5b8063715018a6146102055780638698dbd61461020d5780638da5cb5b1461021657806395d89b411461022757600080fd5b806323b872dd116100e957806323b872dd1461019857806342842e0e146101ab5780634c7bc5cf146101be5780636352211e146101d157806370a08231146101e457600080fd5b806301ffc9a71461011b57806306fdde0314610143578063081812fc14610158578063095ea7b314610183575b600080fd5b61012e6101293660046113ba565b6102b7565b60405190151581526020015b60405180910390f35b61014b610309565b60405161013a919061142f565b61016b610166366004611442565b61039b565b6040516001600160a01b03909116815260200161013a565b610196610191366004611477565b610428565b005b6101966101a63660046114a1565b61053d565b6101966101b93660046114a1565b61056e565b6101966101cc366004611529565b610589565b61016b6101df366004611442565b6106c8565b6101f76101f2366004611595565b61073f565b60405190815260200161013a565b6101966107c6565b6101f760085481565b6007546001600160a01b031661016b565b61014b6107fc565b61019661023d3660046115b0565b61080b565b610196610250366004611602565b61081a565b61014b610263366004611442565b610852565b61012e6102763660046116de565b6001600160a01b03918216600090815260056020908152604080832093909416825291909152205460ff1690565b6101966102b2366004611595565b6109c8565b60006001600160e01b031982166380ac58cd60e01b14806102e857506001600160e01b03198216635b5e139f60e01b145b8061030357506301ffc9a760e01b6001600160e01b03198316145b92915050565b60606000805461031890611711565b80601f016020809104026020016040519081016040528092919081815260200182805461034490611711565b80156103915780601f1061036657610100808354040283529160200191610391565b820191906000526020600020905b81548152906001019060200180831161037457829003601f168201915b5050505050905090565b60006103a682610a63565b61040c5760405162461bcd60e51b815260206004820152602c60248201527f4552433732313a20617070726f76656420717565727920666f72206e6f6e657860448201526b34b9ba32b73a103a37b5b2b760a11b60648201526084015b60405180910390fd5b506000908152600460205260409020546001600160a01b031690565b6000610433826106c8565b9050806001600160a01b0316836001600160a01b0316036104a05760405162461bcd60e51b815260206004820152602160248201527f4552433732313a20617070726f76616c20746f2063757272656e74206f776e656044820152603960f91b6064820152608401610403565b336001600160a01b03821614806104bc57506104bc8133610276565b61052e5760405162461bcd60e51b815260206004820152603860248201527f4552433732313a20617070726f76652063616c6c6572206973206e6f74206f7760448201527f6e6572206e6f7220617070726f76656420666f7220616c6c00000000000000006064820152608401610403565b6105388383610a80565b505050565b6105473382610aee565b6105635760405162461bcd60e51b81526004016104039061174b565b610538838383610bd7565b6105388383836040518060200160405280600081525061081a565b6007546001600160a01b031633146105b35760405162461bcd60e51b81526004016104039061179c565b8281146105f55760405162461bcd60e51b815260206004820152601060248201526f0a082a4829aa6be9c9ea8be9a82a886960831b6044820152606401610403565b60005b838110156106c157610632858583818110610615576106156117d1565b905060200201602081019061062a9190611595565b600854610d73565b61069660085484848481811061064a5761064a6117d1565b905060200281019061065c91906117e7565b8080601f016020809104026020016040519081016040528093929190818152602001838380828437600092019190915250610d8d92505050565b6001600860008282546106a99190611844565b909155508190506106b98161185c565b9150506105f8565b5050505050565b6000818152600260205260408120546001600160a01b0316806103035760405162461bcd60e51b815260206004820152602960248201527f4552433732313a206f776e657220717565727920666f72206e6f6e657869737460448201526832b73a103a37b5b2b760b91b6064820152608401610403565b60006001600160a01b0382166107aa5760405162461bcd60e51b815260206004820152602a60248201527f4552433732313a2062616c616e636520717565727920666f7220746865207a65604482015269726f206164647265737360b01b6064820152608401610403565b506001600160a01b031660009081526003602052604090205490565b6007546001600160a01b031633146107f05760405162461bcd60e51b81526004016104039061179c565b6107fa6000610e11565b565b60606001805461031890611711565b610816338383610e63565b5050565b6108243383610aee565b6108405760405162461bcd60e51b81526004016104039061174b565b61084c84848484610f31565b50505050565b606061085d82610a63565b6108c35760405162461bcd60e51b815260206004820152603160248201527f45524337323155524953746f726167653a2055524920717565727920666f72206044820152703737b732bc34b9ba32b73a103a37b5b2b760791b6064820152608401610403565b600082815260066020526040812080546108dc90611711565b80601f016020809104026020016040519081016040528092919081815260200182805461090890611711565b80156109555780601f1061092a57610100808354040283529160200191610955565b820191906000526020600020905b81548152906001019060200180831161093857829003601f168201915b50505050509050600061097360408051602081019091526000815290565b90508051600003610985575092915050565b8151156109b757808260405160200161099f929190611875565b60405160208183030381529060405292505050919050565b6109c084610f64565b949350505050565b6007546001600160a01b031633146109f25760405162461bcd60e51b81526004016104039061179c565b6001600160a01b038116610a575760405162461bcd60e51b815260206004820152602660248201527f4f776e61626c653a206e6577206f776e657220697320746865207a65726f206160448201526564647265737360d01b6064820152608401610403565b610a6081610e11565b50565b6000908152600260205260409020546001600160a01b0316151590565b600081815260046020526040902080546001600160a01b0319166001600160a01b0384169081179091558190610ab5826106c8565b6001600160a01b03167f8c5be1e5ebec7d5bd14f71427d1e84f3dd0314c0f7b2291e5b200ac8c7c3b92560405160405180910390a45050565b6000610af982610a63565b610b5a5760405162461bcd60e51b815260206004820152602c60248201527f4552433732313a206f70657261746f7220717565727920666f72206e6f6e657860448201526b34b9ba32b73a103a37b5b2b760a11b6064820152608401610403565b6000610b65836106c8565b9050806001600160a01b0316846001600160a01b03161480610bac57506001600160a01b0380821660009081526005602090815260408083209388168352929052205460ff165b806109c05750836001600160a01b0316610bc58461039b565b6001600160a01b031614949350505050565b826001600160a01b0316610bea826106c8565b6001600160a01b031614610c4e5760405162461bcd60e51b815260206004820152602560248201527f4552433732313a207472616e736665722066726f6d20696e636f72726563742060448201526437bbb732b960d91b6064820152608401610403565b6001600160a01b038216610cb05760405162461bcd60e51b8152602060048201526024808201527f4552433732313a207472616e7366657220746f20746865207a65726f206164646044820152637265737360e01b6064820152608401610403565b610cbb600082610a80565b6001600160a01b0383166000908152600360205260408120805460019290610ce49084906118a4565b90915550506001600160a01b0382166000908152600360205260408120805460019290610d12908490611844565b909155505060008181526002602052604080822080546001600160a01b0319166001600160a01b0386811691821790925591518493918716917fddf252ad1be2c89b69c2b068fc378daa952ba7f163c4a11628f55a4df523b3ef91a4505050565b61081682826040518060200160405280600081525061103c565b610d9682610a63565b610df95760405162461bcd60e51b815260206004820152602e60248201527f45524337323155524953746f726167653a2055524920736574206f66206e6f6e60448201526d32bc34b9ba32b73a103a37b5b2b760911b6064820152608401610403565b60008281526006602052604090206105388282611909565b600780546001600160a01b038381166001600160a01b0319831681179093556040519116919082907f8be0079c531659141344cd1fd0a4f28419497f9722a3daafe3b4186f6b6457e090600090a35050565b816001600160a01b0316836001600160a01b031603610ec45760405162461bcd60e51b815260206004820152601960248201527f4552433732313a20617070726f766520746f2063616c6c6572000000000000006044820152606401610403565b6001600160a01b03838116600081815260056020908152604080832094871680845294825291829020805460ff191686151590811790915591519182527f17307eab39ab6107e8899845ad3d59bd9653f200f220920489ca2b5937696c31910160405180910390a3505050565b610f3c848484610bd7565b610f488484848461106f565b61084c5760405162461bcd60e51b8152600401610403906119c9565b6060610f6f82610a63565b610fd35760405162461bcd60e51b815260206004820152602f60248201527f4552433732314d657461646174613a2055524920717565727920666f72206e6f60448201526e3732bc34b9ba32b73a103a37b5b2b760891b6064820152608401610403565b6000610fea60408051602081019091526000815290565b9050600081511161100a5760405180602001604052806000815250611035565b8061101484611170565b604051602001611025929190611875565b6040516020818303038152906040525b9392505050565b6110468383611271565b611053600084848461106f565b6105385760405162461bcd60e51b8152600401610403906119c9565b60006001600160a01b0384163b1561116557604051630a85bd0160e11b81526001600160a01b0385169063150b7a02906110b3903390899088908890600401611a1b565b6020604051808303816000875af19250505080156110ee575060408051601f3d908101601f191682019092526110eb91810190611a58565b60015b61114b573d80801561111c576040519150601f19603f3d011682016040523d82523d6000602084013e611121565b606091505b5080516000036111435760405162461bcd60e51b8152600401610403906119c9565b805181602001fd5b6001600160e01b031916630a85bd0160e11b1490506109c0565b506001949350505050565b6060816000036111975750506040805180820190915260018152600360fc1b602082015290565b8160005b81156111c157806111ab8161185c565b91506111ba9050600a83611a8b565b915061119b565b60008167ffffffffffffffff8111156111dc576111dc6115ec565b6040519080825280601f01601f191660200182016040528015611206576020820181803683370190505b5090505b84156109c05761121b6001836118a4565b9150611228600a86611a9f565b611233906030611844565b60f81b818381518110611248576112486117d1565b60200101906001600160f81b031916908160001a90535061126a600a86611a8b565b945061120a565b6001600160a01b0382166112c75760405162461bcd60e51b815260206004820181905260248201527f4552433732313a206d696e7420746f20746865207a65726f20616464726573736044820152606401610403565b6112d081610a63565b1561131d5760405162461bcd60e51b815260206004820152601c60248201527f4552433732313a20746f6b656e20616c7265616479206d696e746564000000006044820152606401610403565b6001600160a01b0382166000908152600360205260408120805460019290611346908490611844565b909155505060008181526002602052604080822080546001600160a01b0319166001600160a01b03861690811790915590518392907fddf252ad1be2c89b69c2b068fc378daa952ba7f163c4a11628f55a4df523b3ef908290a45050565b6001600160e01b031981168114610a6057600080fd5b6000602082840312156113cc57600080fd5b8135611035816113a4565b60005b838110156113f25781810151838201526020016113da565b8381111561084c5750506000910152565b6000815180845261141b8160208601602086016113d7565b601f01601f19169290920160200192915050565b6020815260006110356020830184611403565b60006020828403121561145457600080fd5b5035919050565b80356001600160a01b038116811461147257600080fd5b919050565b6000806040838503121561148a57600080fd5b6114938361145b565b946020939093013593505050565b6000806000606084860312156114b657600080fd5b6114bf8461145b565b92506114cd6020850161145b565b9150604084013590509250925092565b60008083601f8401126114ef57600080fd5b50813567ffffffffffffffff81111561150757600080fd5b6020830191508360208260051b850101111561152257600080fd5b9250929050565b6000806000806040858703121561153f57600080fd5b843567ffffffffffffffff8082111561155757600080fd5b611563888389016114dd565b9096509450602087013591508082111561157c57600080fd5b50611589878288016114dd565b95989497509550505050565b6000602082840312156115a757600080fd5b6110358261145b565b600080604083850312156115c357600080fd5b6115cc8361145b565b9150602083013580151581146115e157600080fd5b809150509250929050565b634e487b7160e01b600052604160045260246000fd5b6000806000806080858703121561161857600080fd5b6116218561145b565b935061162f6020860161145b565b925060408501359150606085013567ffffffffffffffff8082111561165357600080fd5b818701915087601f83011261166757600080fd5b813581811115611679576116796115ec565b604051601f8201601f19908116603f011681019083821181831017156116a1576116a16115ec565b816040528281528a60208487010111156116ba57600080fd5b82602086016020830137600060208483010152809550505050505092959194509250565b600080604083850312156116f157600080fd5b6116fa8361145b565b91506117086020840161145b565b90509250929050565b600181811c9082168061172557607f821691505b60208210810361174557634e487b7160e01b600052602260045260246000fd5b50919050565b60208082526031908201527f4552433732313a207472616e736665722063616c6c6572206973206e6f74206f6040820152701ddb995c881b9bdc88185c1c1c9bdd9959607a1b606082015260800190565b6020808252818101527f4f776e61626c653a2063616c6c6572206973206e6f7420746865206f776e6572604082015260600190565b634e487b7160e01b600052603260045260246000fd5b6000808335601e198436030181126117fe57600080fd5b83018035915067ffffffffffffffff82111561181957600080fd5b60200191503681900382131561152257600080fd5b634e487b7160e01b600052601160045260246000fd5b600082198211156118575761185761182e565b500190565b60006001820161186e5761186e61182e565b5060010190565b600083516118878184602088016113d7565b83519083019061189b8183602088016113d7565b01949350505050565b6000828210156118b6576118b661182e565b500390565b601f82111561053857600081815260208120601f850160051c810160208610156118e25750805b601f850160051c820191505b81811015611901578281556001016118ee565b505050505050565b815167ffffffffffffffff811115611923576119236115ec565b611937816119318454611711565b846118bb565b602080601f83116001811461196c57600084156119545750858301515b600019600386901b1c1916600185901b178555611901565b600085815260208120601f198616915b8281101561199b5788860151825594840194600190910190840161197c565b50858210156119b95787850151600019600388901b60f8161c191681555b5050505050600190811b01905550565b60208082526032908201527f4552433732313a207472616e7366657220746f206e6f6e20455243373231526560408201527131b2b4bb32b91034b6b83632b6b2b73a32b960711b606082015260800190565b6001600160a01b0385811682528416602082015260408101839052608060608201819052600090611a4e90830184611403565b9695505050505050565b600060208284031215611a6a57600080fd5b8151611035816113a4565b634e487b7160e01b600052601260045260246000fd5b600082611a9a57611a9a611a75565b500490565b600082611aae57611aae611a75565b50069056fea26469706673582212202f1dca83c19b594428beb7844f3c92ff161ad5b95ccb85cde50ce5ae44be6cbb64736f6c634300080f0033",
  "immutableReferences": {},
  "source": "pragma solidity 0.8.15;\nimport \"@openzeppelin/contracts/token/ERC721/ERC721.sol\";\nimport \"@openzeppelin/contracts/access/Ownable.sol\";\nimport \"@openzeppelin/contracts/token/ERC721/extensions/ERC721URIStorage.sol\";\n\n\ncontract MintablleERC721 is ERC721URIStorage,Ownable {\n    uint256 public _CUR_TOKENID_;\n\nconstructor(string memory _name,  string memory _symbol) ERC721(_name, _symbol) {}\n\n    function mint(\n        address[] calldata receivers,\n        string[] calldata uris\n          ) external onlyOwner{\n              require(receivers.length == uris.length,\"PARAMS_NOT_MATCH\");\n              for (uint256 i = 0; i<receivers.length; i++){\n                  _safeMint(receivers[i],_CUR_TOKENID_);\n                  _setTokenURI(_CUR_TOKENID_, uris[i]);\n                   _CUR_TOKENID_+=1;\n\n              }\n          }\n}\n\n",
  "sourcePath": "/Users/verafeng/first-contract-project/contracts/MintableERC721.sol",
  "compiler": {
    "name": "solc",
    "version": "0.8.15+commit.e14f2714.Emscripten.clang"
  },
  "schemaVersion": "3.4.7",
  "updatedAt": "2022-06-20T09:50:34.241Z",
  "devdoc": {
    "kind": "dev",
    "methods": {
      "approve(address,uint256)": {
        "details": "See {IERC721-approve}."
      },
      "balanceOf(address)": {
        "details": "See {IERC721-balanceOf}."
      },
      "getApproved(uint256)": {
        "details": "See {IERC721-getApproved}."
      },
      "isApprovedForAll(address,address)": {
        "details": "See {IERC721-isApprovedForAll}."
      },
      "name()": {
        "details": "See {IERC721Metadata-name}."
      },
      "owner()": {
        "details": "Returns the address of the current owner."
      },
      "ownerOf(uint256)": {
        "details": "See {IERC721-ownerOf}."
      },
      "renounceOwnership()": {
        "details": "Leaves the contract without owner. It will not be possible to call `onlyOwner` functions anymore. Can only be called by the current owner. NOTE: Renouncing ownership will leave the contract without an owner, thereby removing any functionality that is only available to the owner."
      },
      "safeTransferFrom(address,address,uint256)": {
        "details": "See {IERC721-safeTransferFrom}."
      },
      "safeTransferFrom(address,address,uint256,bytes)": {
        "details": "See {IERC721-safeTransferFrom}."
      },
      "setApprovalForAll(address,bool)": {
        "details": "See {IERC721-setApprovalForAll}."
      },
      "supportsInterface(bytes4)": {
        "details": "See {IERC165-supportsInterface}."
      },
      "symbol()": {
        "details": "See {IERC721Metadata-symbol}."
      },
      "tokenURI(uint256)": {
        "details": "See {IERC721Metadata-tokenURI}."
      },
      "transferFrom(address,address,uint256)": {
        "details": "See {IERC721-transferFrom}."
      },
      "transferOwnership(address)": {
        "details": "Transfers ownership of the contract to a new account (`newOwner`). Can only be called by the current owner."
      }
    },
    "version": 1
  },
  "userdoc": {
    "kind": "user",
    "methods": {},
    "version": 1
  }
}